{
  "contractName": "A",
  "abi": [
    {
      "inputs": [
        {
          "internalType": "address",
          "name": "_b",
          "type": "address"
        }
      ],
      "stateMutability": "nonpayable",
      "type": "constructor"
    },
    {
      "anonymous": false,
      "inputs": [
        {
          "indexed": true,
          "internalType": "address",
          "name": "_sender",
          "type": "address"
        },
        {
          "indexed": false,
          "internalType": "uint256",
          "name": "_value",
          "type": "uint256"
        }
      ],
      "name": "Log",
      "type": "event"
    },
    {
      "inputs": [],
      "name": "outputB",
      "outputs": [
        {
          "internalType": "uint256",
          "name": "",
          "type": "uint256"
        }
      ],
      "stateMutability": "view",
      "type": "function"
    },
    {
      "inputs": [],
      "name": "appendAgain",
      "outputs": [],
      "stateMutability": "nonpayable",
      "type": "function"
    },
    {
      "inputs": [],
      "name": "delegateCallToContractB",
      "outputs": [],
      "stateMutability": "nonpayable",
      "type": "function"
    }
  ],
  "bytecode": "0x608060405234801561001057600080fd5b506040516106ad3803806106ad833981810160405281019061003291906100db565b806000806101000a81548173ffffffffffffffffffffffffffffffffffffffff021916908373ffffffffffffffffffffffffffffffffffffffff16021790555050610108565b600080fd5b600073ffffffffffffffffffffffffffffffffffffffff82169050919050565b60006100a88261007d565b9050919050565b6100b88161009d565b81146100c357600080fd5b50565b6000815190506100d5816100af565b92915050565b6000602082840312156100f1576100f0610078565b5b60006100ff848285016100c6565b91505092915050565b610596806101176000396000f3fe608060405234801561001057600080fd5b50600436106100415760003560e01c8063868cd09514610046578063e47af64214610050578063ebb68b551461005a575b600080fd5b61004e610078565b005b6100586101cb565b005b610062610329565b60405161006f91906103d9565b60405180910390f35b60008060008054906101000a900473ffffffffffffffffffffffffffffffffffffffff1673ffffffffffffffffffffffffffffffffffffffff166040516024016040516020818303038152906040527f7f353d55000000000000000000000000000000000000000000000000000000007bffffffffffffffffffffffffffffffffffffffffffffffffffffffff19166020820180517bffffffffffffffffffffffffffffffffffffffffffffffffffffffff8381831617835250505050604051610142919061046e565b600060405180830381855af49150503d806000811461017d576040519150601f19603f3d011682016040523d82523d6000602084013e610182565b606091505b5091509150816101c7576040517f08c379a00000000000000000000000000000000000000000000000000000000081526004016101be906104e2565b60405180910390fd5b5050565b60008054906101000a900473ffffffffffffffffffffffffffffffffffffffff1673ffffffffffffffffffffffffffffffffffffffff16637f353d556040518163ffffffff1660e01b8152600401600060405180830381600087803b15801561023357600080fd5b505af1158015610247573d6000803e3d6000fd5b505050503373ffffffffffffffffffffffffffffffffffffffff167ff950957d2407bed19dc99b718b46b4ce6090c05589006dfb86fd22c34865b23e60008054906101000a900473ffffffffffffffffffffffffffffffffffffffff1673ffffffffffffffffffffffffffffffffffffffff16633fa4f2456040518163ffffffff1660e01b8152600401602060405180830381865afa1580156102ee573d6000803e3d6000fd5b505050506040513d601f19601f820116820180604052508101906103129190610533565b60405161031f91906103d9565b60405180910390a2565b60008060009054906101000a900473ffffffffffffffffffffffffffffffffffffffff1673ffffffffffffffffffffffffffffffffffffffff16633fa4f2456040518163ffffffff1660e01b8152600401602060405180830381865afa158015610397573d6000803e3d6000fd5b505050506040513d601f19601f820116820180604052508101906103bb9190610533565b905090565b6000819050919050565b6103d3816103c0565b82525050565b60006020820190506103ee60008301846103ca565b92915050565b600081519050919050565b600081905092915050565b60005b8381101561042857808201518184015260208101905061040d565b83811115610437576000848401525b50505050565b6000610448826103f4565b61045281856103ff565b935061046281856020860161040a565b80840191505092915050565b600061047a828461043d565b915081905092915050565b600082825260208201905092915050565b7f64656c65676174652063616c6c206661696c6564000000000000000000000000600082015250565b60006104cc601483610485565b91506104d782610496565b602082019050919050565b600060208201905081810360008301526104fb816104bf565b9050919050565b600080fd5b610510816103c0565b811461051b57600080fd5b50565b60008151905061052d81610507565b92915050565b60006020828403121561054957610548610502565b5b60006105578482850161051e565b9150509291505056fea2646970667358221220773e457b8b1b5469c91d4bcdc378295e4c9cc56cf96911882ad6b2ebabe6ea5264736f6c634300080d0033",
  "immutableReferences": {},
  "source": "pragma solidity 0.8.13;\n\nimport \"./ImplementationContract.sol\";\n\ncontract A {\n\n    B b;\n\n    constructor (address _b) {\n        b = B(_b);\n    }\n\n    function outputB() external view returns (uint256) {\n\n            return b.value();\n\n    }\n\n    function appendAgain() external {\n\n        b.append();    \n        emit Log(msg.sender, b.value());\n\n    }\n\n    function delegateCallToContractB () external {\n\n        (bool success, bytes memory data) = address(b).delegatecall(abi.encodeWithSignature(\"append()\"));\n\n        require(success, \"delegate call failed\");\n\n    }\n\n    event Log(address indexed _sender, uint256 _value);\n\n    \n\n}",
  "sourcePath": "/home/komolehin/Documents/blockchain/delegateCall/contracts/ProxyContract.sol",
  "compiler": {
    "name": "solc",
    "version": "0.8.13+commit.abaa5c0e.Emscripten.clang"
  },
  "schemaVersion": "3.4.6",
  "updatedAt": "2022-04-28T19:40:58.381Z",
  "devdoc": {
    "kind": "dev",
    "methods": {},
    "version": 1
  },
  "userdoc": {
    "kind": "user",
    "methods": {},
    "version": 1
  }
}