{
  "contractName": "B",
  "abi": [
    {
      "anonymous": false,
      "inputs": [
        {
          "indexed": true,
          "internalType": "address",
          "name": "_sender",
          "type": "address"
        },
        {
          "indexed": false,
          "internalType": "uint256",
          "name": "_value",
          "type": "uint256"
        }
      ],
      "name": "Log",
      "type": "event"
    },
    {
      "inputs": [],
      "name": "value",
      "outputs": [
        {
          "internalType": "uint256",
          "name": "",
          "type": "uint256"
        }
      ],
      "stateMutability": "view",
      "type": "function"
    },
    {
      "inputs": [],
      "name": "append",
      "outputs": [],
      "stateMutability": "nonpayable",
      "type": "function"
    }
  ],
  "bytecode": "0x608060405234801561001057600080fd5b506101c3806100206000396000f3fe608060405234801561001057600080fd5b50600436106100365760003560e01c80633fa4f2451461003b5780637f353d5514610059575b600080fd5b610043610063565b60405161005091906100ed565b60405180910390f35b610061610069565b005b60005481565b600160008082825461007b9190610137565b925050819055503373ffffffffffffffffffffffffffffffffffffffff167ff950957d2407bed19dc99b718b46b4ce6090c05589006dfb86fd22c34865b23e6000546040516100ca91906100ed565b60405180910390a2565b6000819050919050565b6100e7816100d4565b82525050565b600060208201905061010260008301846100de565b92915050565b7f4e487b7100000000000000000000000000000000000000000000000000000000600052601160045260246000fd5b6000610142826100d4565b915061014d836100d4565b9250827fffffffffffffffffffffffffffffffffffffffffffffffffffffffffffffffff0382111561018257610181610108565b5b82820190509291505056fea2646970667358221220d4a04437c504994aec4b0f22e27b3685767b080867bff381d71b62ad83b8e66864736f6c634300080d0033",
  "immutableReferences": {},
  "source": "pragma solidity 0.8.13;\n\ncontract B {\n\n    uint256 public value;\n\n    function append() external {\n\n        value += 1;\n        emit Log(msg.sender, value);\n\n    }\n\n    event Log(address indexed _sender, uint256 _value);\n\n}",
  "sourcePath": "/home/komolehin/Documents/blockchain/delegateCall/contracts/ImplementationContract.sol",
  "compiler": {
    "name": "solc",
    "version": "0.8.13+commit.abaa5c0e.Emscripten.clang"
  },
  "schemaVersion": "3.4.6",
  "updatedAt": "2022-04-28T19:30:55.048Z",
  "devdoc": {
    "kind": "dev",
    "methods": {},
    "version": 1
  },
  "userdoc": {
    "kind": "user",
    "methods": {},
    "version": 1
  }
}